{
  "contractName": "BlockchainDNS",
  "abi": [
    {
      "inputs": [
        {
          "internalType": "string",
          "name": "",
          "type": "string"
        }
      ],
      "name": "domains",
      "outputs": [
        {
          "internalType": "address",
          "name": "registrar",
          "type": "address"
        },
        {
          "internalType": "string",
          "name": "domain_name",
          "type": "string"
        },
        {
          "internalType": "string",
          "name": "IPAddress",
          "type": "string"
        },
        {
          "internalType": "bool",
          "name": "exists",
          "type": "bool"
        }
      ],
      "stateMutability": "view",
      "type": "function"
    },
    {
      "inputs": [
        {
          "internalType": "address",
          "name": "",
          "type": "address"
        },
        {
          "internalType": "uint256",
          "name": "",
          "type": "uint256"
        }
      ],
      "name": "registered_domains",
      "outputs": [
        {
          "internalType": "address",
          "name": "registrar",
          "type": "address"
        },
        {
          "internalType": "string",
          "name": "domain_name",
          "type": "string"
        },
        {
          "internalType": "string",
          "name": "IPAddress",
          "type": "string"
        },
        {
          "internalType": "bool",
          "name": "exists",
          "type": "bool"
        }
      ],
      "stateMutability": "view",
      "type": "function"
    },
    {
      "inputs": [
        {
          "internalType": "string",
          "name": "_domainName",
          "type": "string"
        },
        {
          "internalType": "string",
          "name": "_IPAddress",
          "type": "string"
        }
      ],
      "name": "addAddress",
      "outputs": [],
      "stateMutability": "nonpayable",
      "type": "function"
    },
    {
      "inputs": [
        {
          "internalType": "string",
          "name": "domainName",
          "type": "string"
        }
      ],
      "name": "getIPAddress",
      "outputs": [
        {
          "internalType": "string",
          "name": "",
          "type": "string"
        }
      ],
      "stateMutability": "view",
      "type": "function"
    },
    {
      "inputs": [
        {
          "internalType": "address",
          "name": "lookup",
          "type": "address"
        }
      ],
      "name": "getRegisteredDomains",
      "outputs": [
        {
          "components": [
            {
              "internalType": "address",
              "name": "registrar",
              "type": "address"
            },
            {
              "internalType": "string",
              "name": "domain_name",
              "type": "string"
            },
            {
              "internalType": "string",
              "name": "IPAddress",
              "type": "string"
            },
            {
              "internalType": "bool",
              "name": "exists",
              "type": "bool"
            }
          ],
          "internalType": "struct BlockchainDNS.domain_info[]",
          "name": "",
          "type": "tuple[]"
        }
      ],
      "stateMutability": "view",
      "type": "function"
    },
    {
      "inputs": [],
      "name": "getMyRegisteredDomains",
      "outputs": [
        {
          "components": [
            {
              "internalType": "address",
              "name": "registrar",
              "type": "address"
            },
            {
              "internalType": "string",
              "name": "domain_name",
              "type": "string"
            },
            {
              "internalType": "string",
              "name": "IPAddress",
              "type": "string"
            },
            {
              "internalType": "bool",
              "name": "exists",
              "type": "bool"
            }
          ],
          "internalType": "struct BlockchainDNS.domain_info[]",
          "name": "",
          "type": "tuple[]"
        }
      ],
      "stateMutability": "view",
      "type": "function"
    }
  ],
  "bytecode": "0x608060405234801561001057600080fd5b5061135b806100206000396000f3fe608060405234801561001057600080fd5b50600436106100625760003560e01c80631bcbc28c14610067578063264492351461008357806333d2e3f7146100b65780634f4bc077146100e6578063bbec424914610119578063f157fa6914610137575b600080fd5b610081600480360381019061007c9190610dd3565b610167565b005b61009d60048036038101906100989190610e4b565b6103b2565b6040516100ad9493929190610f78565b60405180910390f35b6100d060048036038101906100cb9190610ff7565b610535565b6040516100dd91906111b8565b60405180910390f35b61010060048036038101906100fb9190611210565b610768565b6040516101109493929190610f78565b60405180910390f35b6101216108f2565b60405161012e91906111b8565b60405180910390f35b610151600480360381019061014c9190610e4b565b610b23565b60405161015e9190611250565b60405180910390f35b60008260405161017791906112ae565b908152602001604051809103902060030160009054906101000a900460ff16156101a057600080fd5b600060405180608001604052803373ffffffffffffffffffffffffffffffffffffffff168152602001848152602001838152602001600115158152509050806000846040516101ef91906112ae565b908152602001604051809103902060008201518160000160006101000a81548173ffffffffffffffffffffffffffffffffffffffff021916908373ffffffffffffffffffffffffffffffffffffffff1602179055506020820151816001019080519060200190610260929190610bd6565b50604082015181600201908051906020019061027d929190610bd6565b5060608201518160030160006101000a81548160ff021916908315150217905550905050600160003373ffffffffffffffffffffffffffffffffffffffff1673ffffffffffffffffffffffffffffffffffffffff16815260200190815260200160002081908060018154018082558091505060019003906000526020600020906004020160009091909190915060008201518160000160006101000a81548173ffffffffffffffffffffffffffffffffffffffff021916908373ffffffffffffffffffffffffffffffffffffffff160217905550602082015181600101908051906020019061036d929190610bd6565b50604082015181600201908051906020019061038a929190610bd6565b5060608201518160030160006101000a81548160ff0219169083151502179055505050505050565b6000818051602081018201805184825260208301602085012081835280955050505050506000915090508060000160009054906101000a900473ffffffffffffffffffffffffffffffffffffffff1690806001018054610411906112f4565b80601f016020809104026020016040519081016040528092919081815260200182805461043d906112f4565b801561048a5780601f1061045f5761010080835404028352916020019161048a565b820191906000526020600020905b81548152906001019060200180831161046d57829003601f168201915b50505050509080600201805461049f906112f4565b80601f01602080910402602001604051908101604052809291908181526020018280546104cb906112f4565b80156105185780601f106104ed57610100808354040283529160200191610518565b820191906000526020600020905b8154815290600101906020018083116104fb57829003601f168201915b5050505050908060030160009054906101000a900460ff16905084565b6060600160008373ffffffffffffffffffffffffffffffffffffffff1673ffffffffffffffffffffffffffffffffffffffff168152602001908152602001600020805480602002602001604051908101604052809291908181526020016000905b8282101561075d57838290600052602060002090600402016040518060800160405290816000820160009054906101000a900473ffffffffffffffffffffffffffffffffffffffff1673ffffffffffffffffffffffffffffffffffffffff1673ffffffffffffffffffffffffffffffffffffffff16815260200160018201805461061f906112f4565b80601f016020809104026020016040519081016040528092919081815260200182805461064b906112f4565b80156106985780601f1061066d57610100808354040283529160200191610698565b820191906000526020600020905b81548152906001019060200180831161067b57829003601f168201915b505050505081526020016002820180546106b1906112f4565b80601f01602080910402602001604051908101604052809291908181526020018280546106dd906112f4565b801561072a5780601f106106ff5761010080835404028352916020019161072a565b820191906000526020600020905b81548152906001019060200180831161070d57829003601f168201915b505050505081526020016003820160009054906101000a900460ff16151515158152505081526020019060010190610596565b505050509050919050565b6001602052816000526040600020818154811061078457600080fd5b9060005260206000209060040201600091509150508060000160009054906101000a900473ffffffffffffffffffffffffffffffffffffffff16908060010180546107ce906112f4565b80601f01602080910402602001604051908101604052809291908181526020018280546107fa906112f4565b80156108475780601f1061081c57610100808354040283529160200191610847565b820191906000526020600020905b81548152906001019060200180831161082a57829003601f168201915b50505050509080600201805461085c906112f4565b80601f0160208091040260200160405190810160405280929190818152602001828054610888906112f4565b80156108d55780601f106108aa576101008083540402835291602001916108d5565b820191906000526020600020905b8154815290600101906020018083116108b857829003601f168201915b5050505050908060030160009054906101000a900460ff16905084565b6060600160003373ffffffffffffffffffffffffffffffffffffffff1673ffffffffffffffffffffffffffffffffffffffff168152602001908152602001600020805480602002602001604051908101604052809291908181526020016000905b82821015610b1a57838290600052602060002090600402016040518060800160405290816000820160009054906101000a900473ffffffffffffffffffffffffffffffffffffffff1673ffffffffffffffffffffffffffffffffffffffff1673ffffffffffffffffffffffffffffffffffffffff1681526020016001820180546109dc906112f4565b80601f0160208091040260200160405190810160405280929190818152602001828054610a08906112f4565b8015610a555780601f10610a2a57610100808354040283529160200191610a55565b820191906000526020600020905b815481529060010190602001808311610a3857829003601f168201915b50505050508152602001600282018054610a6e906112f4565b80601f0160208091040260200160405190810160405280929190818152602001828054610a9a906112f4565b8015610ae75780601f10610abc57610100808354040283529160200191610ae7565b820191906000526020600020905b815481529060010190602001808311610aca57829003601f168201915b505050505081526020016003820160009054906101000a900460ff16151515158152505081526020019060010190610953565b50505050905090565b6060600082604051610b3591906112ae565b90815260200160405180910390206002018054610b51906112f4565b80601f0160208091040260200160405190810160405280929190818152602001828054610b7d906112f4565b8015610bca5780601f10610b9f57610100808354040283529160200191610bca565b820191906000526020600020905b815481529060010190602001808311610bad57829003601f168201915b50505050509050919050565b828054610be2906112f4565b90600052602060002090601f016020900481019282610c045760008555610c4b565b82601f10610c1d57805160ff1916838001178555610c4b565b82800160010185558215610c4b579182015b82811115610c4a578251825591602001919060010190610c2f565b5b509050610c589190610c5c565b5090565b5b80821115610c75576000816000905550600101610c5d565b5090565b6000604051905090565b600080fd5b600080fd5b600080fd5b600080fd5b6000601f19601f8301169050919050565b7f4e487b7100000000000000000000000000000000000000000000000000000000600052604160045260246000fd5b610ce082610c97565b810181811067ffffffffffffffff82111715610cff57610cfe610ca8565b5b80604052505050565b6000610d12610c79565b9050610d1e8282610cd7565b919050565b600067ffffffffffffffff821115610d3e57610d3d610ca8565b5b610d4782610c97565b9050602081019050919050565b82818337600083830152505050565b6000610d76610d7184610d23565b610d08565b905082815260208101848484011115610d9257610d91610c92565b5b610d9d848285610d54565b509392505050565b600082601f830112610dba57610db9610c8d565b5b8135610dca848260208601610d63565b91505092915050565b60008060408385031215610dea57610de9610c83565b5b600083013567ffffffffffffffff811115610e0857610e07610c88565b5b610e1485828601610da5565b925050602083013567ffffffffffffffff811115610e3557610e34610c88565b5b610e4185828601610da5565b9150509250929050565b600060208284031215610e6157610e60610c83565b5b600082013567ffffffffffffffff811115610e7f57610e7e610c88565b5b610e8b84828501610da5565b91505092915050565b600073ffffffffffffffffffffffffffffffffffffffff82169050919050565b6000610ebf82610e94565b9050919050565b610ecf81610eb4565b82525050565b600081519050919050565b600082825260208201905092915050565b60005b83811015610f0f578082015181840152602081019050610ef4565b83811115610f1e576000848401525b50505050565b6000610f2f82610ed5565b610f398185610ee0565b9350610f49818560208601610ef1565b610f5281610c97565b840191505092915050565b60008115159050919050565b610f7281610f5d565b82525050565b6000608082019050610f8d6000830187610ec6565b8181036020830152610f9f8186610f24565b90508181036040830152610fb38185610f24565b9050610fc26060830184610f69565b95945050505050565b610fd481610eb4565b8114610fdf57600080fd5b50565b600081359050610ff181610fcb565b92915050565b60006020828403121561100d5761100c610c83565b5b600061101b84828501610fe2565b91505092915050565b600081519050919050565b600082825260208201905092915050565b6000819050602082019050919050565b61105981610eb4565b82525050565b600082825260208201905092915050565b600061107b82610ed5565b611085818561105f565b9350611095818560208601610ef1565b61109e81610c97565b840191505092915050565b6110b281610f5d565b82525050565b60006080830160008301516110d06000860182611050565b50602083015184820360208601526110e88282611070565b915050604083015184820360408601526111028282611070565b915050606083015161111760608601826110a9565b508091505092915050565b600061112e83836110b8565b905092915050565b6000602082019050919050565b600061114e82611024565b611158818561102f565b93508360208202850161116a85611040565b8060005b858110156111a657848403895281516111878582611122565b945061119283611136565b925060208a0199505060018101905061116e565b50829750879550505050505092915050565b600060208201905081810360008301526111d28184611143565b905092915050565b6000819050919050565b6111ed816111da565b81146111f857600080fd5b50565b60008135905061120a816111e4565b92915050565b6000806040838503121561122757611226610c83565b5b600061123585828601610fe2565b9250506020611246858286016111fb565b9150509250929050565b6000602082019050818103600083015261126a8184610f24565b905092915050565b600081905092915050565b600061128882610ed5565b6112928185611272565b93506112a2818560208601610ef1565b80840191505092915050565b60006112ba828461127d565b915081905092915050565b7f4e487b7100000000000000000000000000000000000000000000000000000000600052602260045260246000fd5b6000600282049050600182168061130c57607f821691505b60208210810361131f5761131e6112c5565b5b5091905056fea26469706673582212204cb69fc8601582f6e13c16c66d7ab42fc02e2dd3e2e0433d8628f03b1fc7d82264736f6c634300080d0033",
  "immutableReferences": {},
  "source": "// SPDX-License-Identifier: MIT \r\npragma solidity ^0.8.10; \r\n\r\ncontract BlockchainDNS {\r\n    struct domain_info {\r\n        address registrar;\r\n        string domain_name;\r\n        string IPAddress;\r\n        bool exists;\r\n    }\r\n    mapping(string => domain_info) public domains;\r\n    mapping(address => domain_info[]) public registered_domains;\r\n\r\n    function addAddress(string memory _domainName, string memory _IPAddress) public {\r\n        require(!domains[_domainName].exists); //block double-register\r\n        domain_info memory domain = domain_info({registrar: msg.sender, domain_name: _domainName, IPAddress: _IPAddress, exists: true});\r\n        domains[_domainName] = domain;\r\n        registered_domains[msg.sender].push(domain);\r\n    }\r\n    \r\n    function getIPAddress(string memory domainName) public view returns(string memory){\r\n        return domains[domainName].IPAddress;\r\n    }\r\n    \r\n    function getRegisteredDomains(address lookup)public view returns(domain_info[] memory){\r\n        return registered_domains[lookup];\r\n    }\r\n\r\n    function getMyRegisteredDomains()public view returns(domain_info[] memory){\r\n        return registered_domains[msg.sender];\r\n    }\r\n\r\n//  this function doesn't work because solidity doesn't allow returns on mappings\r\n//  The only way to return the full mapping is to copy each key and value into an array and then return it.\r\n//  Considering the concept of gas, this isn't really feasible.\r\n//\r\n//  function getDNS() public view returns (mapping(string => string) memory){\r\n//      return addresses;\r\n//  }\r\n}\r\n",
  "sourcePath": "/home/chris/cs458-term-project/contracts/contracts/BlockchainDNS.sol",
  "compiler": {
    "name": "solc",
    "version": "0.8.13+commit.abaa5c0e.Emscripten.clang"
  },
  "schemaVersion": "3.4.7",
  "updatedAt": "2022-04-27T22:26:27.497Z",
  "devdoc": {
    "kind": "dev",
    "methods": {},
    "version": 1
  },
  "userdoc": {
    "kind": "user",
    "methods": {},
    "version": 1
  }
}